:0400000074EF00F0A9
:100018002280D8CF02F0E8CF03F0E0CF04F0FACF87
:1000280005F0FBCF06F0E9CF07F0EACF08F0E1CF03
:1000380009F0E2CF0AF0D9CF0BF0DACF0CF0F3CF0A
:100048000DF0F4CF0EF0F6CF0FF0F7CF10F0F8CF99
:1000580011F0F5CF12F022C013F023C014F024C021
:1000680015F025C016F0F2A40FD0F2948AB603D08A
:10007800016A012A01D0016A0146014601468A50F7
:100088000118F70B01188A6E16C025F015C024F068
:1000980014C023F013C022F012C0F5FF11C0F8FFFE
:1000A80010C0F7FF0FC0F6FF0EC0F4FF0DC0F3FF3E
:1000B8000CC0DAFF0BC0D9FF0AC0E2FF09C0E1FF9C
:1000C80008C0EAFF07C0E9FF06C0FBFF05C0FAFF4A
:1000D80004C0E0FF03C0E8FF02C0D8FF2290100070
:0400E80026EF09F006
:1010000000427574746F6E204230206973204F4B1C
:1010100000427574746F6E204134206973204F4B09
:10102000004E6F6973652073656E736F72004C6953
:101030006768742073656E736F7200506F74656EAD
:1010400074696F6D657472004E6F697365206973A2
:10105000204F4B0054656D70657261747572650048
:1010600054656D702073656E736F72005245462033
:1010700073656E736F72004C4544206973204F4B4B
:101080000049522073656E736F720049522D73656B
:101090006E736F720052454420434F4445005245E1
:1010A00046313A2000524546323A200052454633F6
:1010B0003A200056616C3A20007C0000030E951621
:1010C0000F0E8C1683968394040E196E3E0EE82E36
:1010D000FED7192EFCD78C500F0B30098C6E33ECD9
:1010E00009F0040E196E3E0EE82EFED7192EFCD71D
:1010F0008C500F0B30098C6E33EC09F0040E196E16
:101100003E0EE82EFED7192EFCD78C500F0B30095F
:101110008C6E33EC09F0040E196E3E0EE82EFED7ED
:10112000192EFCD78C500F0B20098C6E33EC09F074
:10113000040E196E3E0EE82EFED7192EFCD7280E8F
:10114000B2EC08F0010EB2EC08F0060EB2EC08F0BA
:101150000C0EB2EC08F0020EB2EC08F0010EB2EC8C
:1011600008F01200186E839418C017F0F00E1716CE
:101170008C500F0B17108C6E33EC09F018C017F061
:10118000173AF00E1716F00E17168C500F0B17109B
:101190008C6E33EC09F0040E176E3E0EE82EFED76F
:1011A000172EFCD712009590959293929394949257
:1011B0009494BD50F00B0C09BD6E3F0EBD16BA8065
:1011C000BA82BA84BA86000EBE6E000EBB6E7C0E6A
:1011D000CB6EFC0ECA16CA8412002F0E9212070E96
:1011E0009612C150F00B0709C16ECF0EC116C08612
:1011F000C088C08AC050F80B0609C06EC09EC2806D
:1012000012009490D58CD586D580D582D584D59A78
:10121000000ED76EC80ED66ED58ED08EF194F29495
:10122000F28EF28CF28A1200D59CD596D580D582AA
:10123000D584D59AD90ED76ED90ED66ED58ED08ECE
:10124000F194F294F28EF28CF28A120000EE1AF00F
:10125000080EEE6AE806FDE122902292000EF86E7A
:10126000000147EF09F08386290EE82EFED700D053
:101270008396290EE82EFED700D012005EEC08F00F
:10128000EDEC08F0D3EC08F001EC09F012003EECB4
:0A12900009F014EC09F09396FFD763
:020000040020DA
:08000000FFFFFFFFFFFFFFFF00
:020000040030CA
:0E000000FF021B1EFF8181FF0FC00FE00F40AB
:00000001FF
