:04000000BBEF0AF058
:1010000000427574746F6E204230206973204F4B1C
:1010100000427574746F6E204134206973204F4B09
:1010200000427574746F6E2070726573736564002E
:101030004E6F6973652073656E736F72004C6967DC
:1010400068742073656E736F7200506F74656E7490
:10105000696F6D657472004E6F69736520697320E6
:101060004F4B0054656D7065726174757265005404
:10107000656D702073656E736F7200524546207304
:10108000656E736F72004C4544206973204F4B00AE
:1010900049522073656E736F720049522D73656EED
:1010A000736F720052454420434F444500524546F9
:1010B000313A2000524546323A2000524546333AF2
:0B10C000200056616C3A20007C00000C
:1010CC00030E95160F0E8C1683968394040E036EE6
:1010DC003E0EE82EFED7032EFCD78C500F0B30099A
:1010EC008C6EB0EC0AF0040E036E3E0EE82EFED7AA
:1010FC00032EFCD78C500F0B30098C6EB0EC0AF021
:10110C00040E036E3E0EE82EFED7032EFCD78C5039
:10111C000F0B30098C6EB0EC0AF0040E036E3E0E11
:10112C00E82EFED7032EFCD78C500F0B20098C6EAB
:10113C00B0EC0AF0040E036E3E0EE82EFED7032E22
:10114C00FCD7280EF4EC09F0010EF4EC09F0060EB5
:10115C00F4EC09F00C0EF4EC09F0020EF4EC09F0CE
:10116C00010EF4EC09F012000AC00EF00BC00FF0E7
:10117C000EC001F00FC002F00CC003F00DC004F063
:10118C0089EC09F001C00EF002C00FF0084A092AE0
:10119C000E500F10D8A4ECD708C0D9FF09C0DAFF45
:1011AC00000EDF6E0806D8A009060AC001F00BC0BD
:1011BC0002F00CC003F00DC004F0D3EC09F00150A8
:1011CC00106E0AC001F00BC002F00CC003F00DC091
:1011DC0004F089EC09F001C00AF002C00BF0090E12
:1011EC00106402D0070E1026300E102608C0D9FF4E
:1011FC0009C0DAFF10C0DFFF0806D8A009060A50A4
:10120C000B10D8A4D2D7084A092A12009380000EDA
:10121C00316E81B021D0E40E2E6E440EE82EFED736
:10122C002E2EFCD700D081B017D0312A15D0780ED5
:10123C0061EC0AF0780E49EC0AF018D0880E61ECDB
:10124C000AF0880E49EC0AF011D0000E61EC0AF09D
:10125C00000E49EC0AF00AD03150010AD8B4E7D795
:10126C00030AD8B4EBD7010AD8B4EFD7040E316017
:10127C0004D031C02FF0306A04D0000E306E000E56
:10128C002F6E2FC031F0210E036E100E046E800EE7
:10129C0059EC09F03150196E1A6A1B6A1C6AC00E9F
:1012AC0079EC0AF0B6D7056E020EF4EC09F0055095
:1012BC00F4EC09F014D003C0F6FF04C0F7FFF86A91
:1012CC000F0EF76403D00800F55005D0F6CFD9FF08
:1012DC00F7CFDAFFDF5015EC0AF0034A042A03C0FB
:1012EC00F6FF04C0F7FFF86A0F0EF76403D008008E
:1012FC00F55005D0F6CFD9FFF7CFDAFFDF50000954
:10130C00D8B41200D8D7000E066E000E056E03502E
:10131C000410D8B41CD0010E076E04D0D89003363C
:10132C000436072A04AEFAD7D89005360636035091
:10133C00015C04500258D8A005D00350015E045043
:10134C00025A0580D89004320332072EEDD705C01F
:10135C0001F006C002F0120011C017F012C018F014
:10136C0014AE0CD011C0D9FF12C0DAFF2D0EDF6EF7
:10137C00114A122A136C141ED8B0142A11C008F08A
:10138C0012C009F013C00AF014C00BF015C00CF019
:10139C0016C00DF0BAEC08F0120003500410D8B4CB
:1013AC0018D0010E056E04D0D89003360436052AE9
:1013BC0004AEFAD70350015C04500258D8A004D0F4
:1013CC000350015E0450025AD89004320332052EA9
:1013DC00F1D701C001F002C002F01200026E83943A
:1013EC0002C001F0F00E01168C500F0B01108C6E28
:1013FC00B0EC0AF002C001F0013AF00E0116F00E4A
:10140C0001168C500F0B01108C6EB0EC0AF0040E10
:10141C00016E3E0EE82EFED7012EFCD71200026E96
:10142C00838402C001F0F00E01168C500F0B0110DA
:10143C008C6EB0EC0AF002C001F0013AF00E01160D
:10144C00F00E01168C500F0B01108C6EB0EC0AF0E4
:10145C001200959095929392939494929494BD507B
:10146C00F00B0C09BD6E3F0EBD16BA80BA82BA8461
:10147C00BA86000EBE6E000EBB6E7C0ECB6EFC0EE2
:10148C00CA16CA841200016E0150800A7F0FD8A0C0
:10149C0005D001C0BBFF81928184120001AE06D041
:1014AC0001500008BB6E818281941200000EBB6E4D
:1014BC00819281941200016E0150800A7F0FD8A096
:1014CC0005D001C0BEFF83908382120001AE06D00E
:1014DC0001500008BE6E838083921200000EBE6E17
:1014EC008390839212002D6E1D0E116E000E126EE3
:1014FC0019C013F01AC014F0000E166E0A0E156EF9
:10150C00B2EC09F01D0E036E000E046E2D5059EC5A
:10151C0009F012002F0E9212070E9612C150F00B0A
:10152C000709C16ECF0EC116C086C088C08AC050D4
:10153C00F80B0609C06EC09EC28012003250D8A4AF
:10154C00120066EC08F090EC0AF02FEC0AF0010E99
:10155C00326E12008386290EE82EFED700D08396B9
:10156C00290EE82EFED700D01200326A000EF86E5B
:10157C000001C1EF0AF0A4EC0AF00CEC09F0FFD763
:020000040020DA
:08000000FFFFFFFFFFFFFFFF00
:020000040030CA
:0E000000FF021B1EFF8181FF0FC00FE00F40AB
:00000001FF
