:0400000028EF09F0EC
:101000000020202020202020202020202020202000
:101010002000427574746F6E204230206973204F37
:101020004B00427574746F6E204134206973204FF9
:101030004B00427574746F6E2070726573736564D3
:10104000004E6F6973652073656E736F72004C6933
:101050006768742073656E736F7200506F74656E8D
:1010600074696F6D657472004E6F69736520697382
:10107000204F4B0054656D70657261747572650028
:1010800054656D702073656E736F72005245462013
:1010900073656E736F72004C4544206973204F4B2B
:1010A0000049522073656E736F720049522D73654B
:1010B0006E736F720052454420434F4445005245C1
:1010C00046313A2000524546323A200052454633D6
:1010D0003A200056616C3A20007C0000030E951601
:1010E0000F0E8C1683968394040E066E3E0EE82E29
:1010F000FED7062EFCD78C500F0B30098C6E1DECE2
:1011000009F0040E066E3E0EE82EFED7062EFCD722
:101110008C500F0B30098C6E1DEC09F0040E066E1E
:101120003E0EE82EFED7062EFCD78C500F0B300952
:101130008C6E1DEC09F0040E066E3E0EE82EFED7F6
:10114000062EFCD78C500F0B20098C6E1DEC09F07D
:10115000040E066E3E0EE82EFED7062EFCD7280E95
:10116000C2EC08F0010EC2EC08F0060EC2EC08F06A
:101170000C0EC2EC08F0020EC2EC08F0010EC2EC3C
:1011800008F01200056E839405C004F0F00E0416FA
:101190008C500F0B04108C6E1DEC09F005C004F090
:1011A000043AF00E0416F00E04168C500F0B0410C7
:1011B0008C6E1DEC09F0040E046E3E0EE82EFED778
:1011C000042EFCD71200959095929392939494924A
:1011D0009494BD50F00B0C09BD6E3F0EBD16BA8045
:1011E000BA82BA84BA86000EBE6E000EBB6E7C0E4A
:1011F000CB6EFC0ECA16CA8412002F0E9212070E76
:101200009612C150F00B0709C16ECF0EC116C086F1
:10121000C088C08AC050F80B0609C06EC09EC2804C
:1012200012000350D8A412006EEC08F0FDEC08F098
:10123000E3EC08F0010E036E12008386290EE82EFF
:10124000FED700D08396290EE82EFED700D01200DC
:10125000036A026A016A000EF86E000130EF09F0BD
:0612600011EC09F0FFD7BC
:020000040020DA
:08000000FFFFFFFFFFFFFFFF00
:020000040030CA
:0E000000FF021B1EFF8181FF0FC00FE00F40AB
:00000001FF
